:020000040000FA
:0600000084EF01F0120084
:020006001200E6
:060008000EEF00F01200F3
:02000E000100EF
:0C001000240300008000000068000000D5
:04001C00DACFE4FF54
:10002000E2CFDAFFE9CFE4FFEACFE4FFF6CFE4FF67
:10003000F7CFE4FFF5CFE4FFF3CFE4FFF4CFE4FF25
:10004000FACFE4FF00EE00F0020EE80403E3EECF87
:10005000E4FFFBD700EE02F0020EE80403E3EECF6C
:10006000E4FFFBD7E6529EB8D3D89EBAEBD8E55250
:1000700000EE03F0020EE80403E3E5CFEDFFFBD74B
:1000800000EE01F0020EE80403E3E5CFEDFFFBD73D
:10009000E5CFFAFFE5CFF4FFE5CFF3FFE5CFF5FFBE
:1000A000E5CFF7FFE5CFF6FFE5CFEAFFE5CFE9FFC4
:1000B000E5CFDAFF1100D9CFE6FFE1CFD9FF040E7B
:1000C000E126936A956A948C948E200EAC6E900E05
:1000D000AB6EB8960F0EAF6E9D889D8AF28EF28C35
:1000E000310E0001F25D43E1020EDB6A030EDB6AB2
:1000F000020EDBCF02F0030EDBCF03F0D8900350EB
:1001000004E6050E025C000E035830E2AA0E816E72
:10011000DE6ADD6ADECF02F0DDCF03F0D890035057
:1001200004E6E80E025C030E035805E2DF2A010E26
:1001300001E3DB2AEFD7550E816EDE6ADD6ADECF82
:1001400002F0DDCF03F0D890035004E6E80E025C25
:10015000030E035805E2DF2A010E01E3DB2AEFD785
:10016000020EDB2A030E01E3DB2AC2D746D0320E91
:10017000F25D43E1020EDB6A030EDB6A020EDBCFA7
:1001800002F0030EDBCF03F0D890035004E6050E17
:10019000025C000E035830E2AA0E836EDE6ADD6A4E
:1001A000DECF02F0DDCF03F0D890035004E6E80E76
:1001B000025C030E035805E2DF2A010E01E3DB2A8D
:1001C000EFD7550E836EDE6ADD6ADECF02F0DDCF3B
:1001D00003F0D890035004E6E80E025C030E0358C7
:1001E00005E2DF2A010E01E3DB2AEFD7020EDB2A4C
:1001F000030E01E3DB2AC2D700D072D7040EE15C04
:1002000002E2E16AE552E16EE552E7CFD9FF120062
:100210000001E751E519E8AE02D0E53504D0E4511C
:10022000E65DE551E7590CE2800EE625E96E000E29
:10023000E721EA6EEF50AD6EE62B000EE72301D00A
:0A0240009D981200AECFF2F01200FC
:06024A000E0EF66E000E20
:10025000F76E000EF86E00010900F550ED6F090011
:10026000F550EE6F03E1ED6701D03DD00900F55088
:10027000E86F0900F550E96F0900F550EA6F0900D1
:100280000900F550E96E0900F550EA6E0900090011
:100290000900F550EB6F0900F550EC6F09000900FB
:1002A000F6CFEFF0F7CFF0F0F8CFF1F0E8C0F6FFBF
:1002B000E9C0F7FFEAC0F8FF0001EB5302E1EC539D
:1002C00007E00900F550EE6EEB07F8E2EC07F9D70E
:1002D000EFC0F6FFF0C0F7FFF1C0F8FF0001ED0737
:0802E000000EEE5BBFD7120017
:0802E800000EF36E00EE00F0C1
:1002F000060E01D81200EA6002D0EE6AFCD7F35075
:08030000E9601200EE6AFCD76F
:0803080015EE00F025EE00F0F7
:10031000F86A019C25EC01F003EC00F05BEC00F0C6
:04032000FBD71200F5
:0C0324004A656520417961616E204E75CC
:10033000210D506C656173652053656C6563742095
:1003400066726F6D2031206F662074686520666F5D
:100350006C6C6F77696E67206F7074696F6E730D68
:100360000D5072657373203120666F7220504F52AA
:1003700054420D5072657373203220666F722050A4
:0C0380004F5254440D0D0D0063000000AE
:020000040030CA
:0100010002FC
:010003001EDE
:010006008178
:00000001FF
