:020000040000FA
:060000001EEF03F01200E8
:020006001200E6
:060008000EEF00F01200F3
:02000E000100EF
:0C00100058060000800000004B000000BB
:04001C00DACFE4FF54
:10002000E2CFDAFFE9CFE4FFEACFE4FFF6CFE4FF67
:10003000F7CFE4FFF5CFE4FFF3CFE4FFF4CFE4FF25
:10004000FACFE4FF00EE00F0140EE80403E3EECF75
:10005000E4FFFBD700EE14F0040EE80403E3EECF58
:10006000E4FFFBD7E6529EBC41D89EB851D89EBA59
:1000700085D8E55200EE17F0040EE80403E3E5CF5F
:10008000EDFFFBD700EE13F0140EE80403E3E5CF19
:10009000EDFFFBD7E5CFFAFFE5CFF4FFE5CFF3FFA8
:1000A000E5CFF5FFE5CFF7FFE5CFF6FFE5CFEAFFB8
:1000B000E5CFE9FFE5CFDAFF11009280070EC16EB0
:1000C000C26AAD0EC06E948C948E200EAC6E900EF3
:1000D000AB6EB8960F0EAF6E9E9C9D8C9D889D8AD0
:1000E000F28EF28C936A956AFFD712009E9CC4CF61
:1000F000D8F0C3CFD9F0D9C083FFD8C081FFC29256
:10010000D9C0E6FFD8C0E6FF49D8E552E552120053
:10011000CAC014F0156A14BE156800011550C7193D
:10012000E8AE02D0C73504D0C651145CC75115588B
:100130000DE2CAC0E9FFEA6AE9BEEA68800EE92674
:10014000000EEA22EF50AD6ECA2B17D0C85114E052
:100150000001D607D6C0E9FFEA6AE9BEEA68DA0E0E
:10016000E926000EEA22EF50AD6EFF0ED65D03E1E8
:100170000001C86BCA6B01D09D981200AECFD5F0BC
:10018000310E0001D55D03E1C280C28206D0300E7F
:10019000D55D03E1C290C29200D01200D9CFE6FF34
:1001A000E1CFD9FF0E0EE126DE6ADD6A010EF36EA5
:1001B000040EF3CFDBFF050EDB6A040EDBCF14F079
:1001C000050EDBCF15F0153404E214508008000E44
:1001D000155440E3FD0EDBCF14F0156A14BE15680C
:1001E000020E14C0DBFF030E15C0DBFF040EDBCFD5
:1001F00016F0050EDBCF17F0020EDB501614146E4E
:10020000030EDB501714156E020E14C0DBFF030E35
:1002100015C0DBFF020EDBCF14F0030EDBCF15F0B1
:10022000D9CFE9FFDACFEAFF1450EE261550ED22C0
:10023000020E086E096A040EDBCF0DF0050EDBCF4F
:100240000EF07CEC02F0040E06C0DBFF050E07C0CA
:10025000DBFFB3D7010EF36E040EF3CFDBFF050E09
:10026000DB6A040EDBCF14F0050EDBCF15F015347E
:1002700004E214500208000E155451E3FE0EDBCFC9
:1002800014F0156A14BE1568020E14C0DBFF030ECD
:1002900015C0DBFF040EDBCF16F0050EDBCF17F029
:1002A000020EDB501614146E030EDB501714156E7D
:1002B000020E14C0DBFF030E15C0DBFF086A010E3F
:1002C000096E020EDBCF0DF0030EDBCF0EF07CECDF
:1002D00002F0020E06C0DBFF030E07C0DBFF020EBA
:1002E000DBCF14F0030EDBCF15F0D9CFE9FFDACF67
:1002F000EAFF1450EE261550ED22020E086E096A30
:10030000040EDBCF0DF0050EDBCF0EF07CEC02F01F
:10031000040E06C0DBFF050E07C0DBFFA2D7040EEC
:10032000DB6A050EDB6AD9CFE9FFDACFEAFFEE50D0
:10033000ED1025E1040EDB6A050EDB6A040EDBCF4F
:1003400014F0050EDBCF15F0D890155004E6040E1E
:10035000145C000E155812E2040EDBCFE9FF050E07
:10036000DBCFEAFFDA0EE926000EEA22300EEF6E4E
:10037000040EDB2A050E01E3DB2AE0D773D0D9CFC8
:10038000E9FFDACFEAFFEE50ED106CE0DECF16F0B9
:10039000DDCF17F00A0E0D6E0E6A16C008F017C0FA
:1003A00009F056EC02F004C016F005C017F0D95061
:1003B000060F146EDACF15F0020E086E096A040EED
:1003C000DBCF0DF0050EDBCF0EF07CEC02F014500D
:1003D0000624E96E15500720EA6E16C0EEFF17C01E
:1003E000EDFFD950060F166EDACF17F0020E086E29
:1003F000096A040EDBCF0DF0050EDBCF0EF07CECAE
:1004000002F016500624E96E17500720EA6EEECF70
:1004100014F0EFCF15F0300E1426000E1522040E46
:10042000DBCFE9FF050EDBCFEAFFDA0EE926000E8F
:10043000EA2214C0EFFF0A0E146E156A14C00DF004
:1004400015C00EF0DECF08F0DDCF09F056EC02F05B
:1004500008C0DEFF09C0DDFF040EDB2A050E01E344
:10046000DB2A8DD70001010EC86F040EDBCF14F01C
:10047000050EDBCF15F01406000E155A14C0D6F089
:10048000D6C0E9FFEA6AE9BEEA68DA0EE926000E9C
:10049000EA22EF50AD6E9D880E0EE15C02E2E16A49
:0C04A000E552E16EE552E7CFD9FF1200F3
:0404AC00006A0EAE26
:1004B0005FEF02F00D6C0E1EE86A0E22001E09AE00
:1004C00067EF02F0086C091EE86A0922001EF8ECCA
:1004D00002F009BE77EF02F000AE000C086C091EB6
:1004E000E86A0922046C051EE86A0522000C00BEB9
:1004F0006EEF02F00188FF0C09C013F008C012F083
:1005000008500D02F4CF07F0F3CF06F009500E02A9
:10051000F4CF09F0F3CF08F00D02F3500726F450A2
:100520000822E86A092212500E02F3500726F450FE
:100530000822E86A09220EAEA2EF02F01250085E0D
:100540001350095A13AE000C0D50085E0E50095A94
:02055000000C9D
:0E0552000E0EF66E000EF76E000EF86E000133
:100560000900F550D06F0900F550D16F03E1D06755
:1005700001D03DD00900F550CB6F0900F550CC6F8C
:100580000900F550CD6F09000900F550E96E09002A
:10059000F550EA6E090009000900F550CE6F090018
:1005A000F550CF6F09000900F6CFD2F0F7CFD3F0A6
:1005B000F8CFD4F0CBC0F6FFCCC0F7FFCDC0F8FF2A
:1005C0000001CE5302E1CF5307E00900F550EE6E73
:1005D000CE07F8E2CF07F9D7D2C0F6FFD3C0F7FFB6
:1005E000D4C0F8FF0001D007000ED15BBFD71200C6
:1005F000056A046A100EE76ED8900836093604368C
:1006000005360D50045C0E50055805E30D50045E90
:0C0610000E50055A082AE72EF0D7120001
:04061C00000EF36E6B
:1006200000EE00F0060E01D81200EA6002D0EE6A79
:0C063000FCD7F350E9601200EE6AFCD722
:04063C0015EE00F0C7
:1006400025EE00F0F86A019CA9EC02F003EC00F042
:080650005DEC00F0FBD7120085
:080658000D0D5468697320695F
:100660007320412048797065725465726D696E61BE
:100670006C2053696D756C6174696F6E0D50726595
:100680007373203120746F20436F6D707574652013
:1006900061204144432056616C75650D0D00460094
:0306A00000000057
:020000040030CA
:0100010002FC
:010003001EDE
:010006008178
:00000001FF
