:020000040000FA
:0600000014EF01F01200F4
:020006001200E6
:060008000EEF00F01200F3
:02000E000100EF
:0C001000440200008A0000000100000013
:04001C00DACFE4FF54
:10002000E2CFDAFFE9CFE4FFEACFE4FFF6CFE4FF67
:10003000F7CFE4FFF5CFE4FFF3CFE4FFF4CFE4FF25
:10004000FACFE4FF00EE00F0020EE80403E3EECF87
:10005000E4FFFBD700EE02F0020EE80403E3EECF6C
:10006000E4FFFBD7E6529EB67CD8E55200EE03F0E3
:10007000020EE80403E3E5CFEDFFFBD700EE01F04D
:10008000020EE80403E3E5CFEDFFFBD7E5CFFAFF6F
:10009000E5CFF4FFE5CFF3FFE5CFF5FFE5CFF7FFC1
:1000A000E5CFF6FFE5CFEAFFE5CFE9FFE5CFDAFFE1
:1000B0001100D9CFE6FFE1CFD9FF060EE126040EED
:1000C000DB6A050EDB6A956A949A948894969494F8
:1000D0008284200EC66EC76A9E969D86F28EF28C32
:1000E000C9CF8AF08294040EDB50C96EDE6ADD6AE5
:1000F000DECF02F0DDCF03F0D890035004E6640EAB
:10010000025C000E03581DE2020EDB6A030EDB6A7E
:10011000020EDBCF02F0030EDBCF03F0D8900350CA
:1001200004E6E80E025C030E035806E2020EDB2A28
:10013000030E01E3DB2AECD7DF2A010E01E3DB2A01
:10014000D7D7040EDB2A050E01E3DB2ACCD7060E37
:10015000E15C02E2E16AE552E16EE552E7CFD9FFE8
:0A01600012009E96C9CF8AF012002B
:06016A000E0EF66E000E01
:10017000F76E000EF86E00010900F550856F09005A
:10018000F550866F03E1856701D03DD00900F55039
:10019000806F0900F550816F0900F550826F0900EA
:1001A0000900F550E96E0900F550EA6E09000900F2
:1001B0000900F550836F0900F550846F09000900AC
:1001C000F6CF87F0F7CF88F0F8CF89F080C0F6FF40
:1001D00081C0F7FF82C0F8FF0001835302E184531E
:1001E00007E00900F550EE6E8307F8E28407F9D7BF
:1001F00087C0F6FF88C0F7FF89C0F8FF00018507B8
:08020000000E865BBFD712005F
:08020800000EF36E00EE00F0A1
:10021000060E01D81200EA6002D0EE6AFCD7F35055
:08022000E9601200EE6AFCD750
:0802280015EE00F025EE00F0D8
:10023000F86A019CB5EC00F003EC00F059EC00F01A
:04024000FBD71200D6
:0102440000B9
:020000040030CA
:0100010002FC
:010003001EDE
:010006008574
:00000001FF
