:020000040000FA
:06000000EBEF00F012001E
:020006001200E6
:060008000EEF00F01200F3
:02000E000100EF
:0C001000F20100008A0000000200000065
:04001C00DACFE4FF54
:10002000E2CFDAFFE9CFE4FFEACFE4FFF6CFE4FF67
:10003000F7CFE4FFF5CFE4FFF3CFE4FFF4CFE4FF25
:10004000FACFE4FF00EE00F0020EE80403E3EECF87
:10005000E4FFFBD700EE02F0000EE80403E3EECF6E
:10006000E4FFFBD7E652F2B443D8F0B23AD8F0B08E
:1000700034D8E55200EE01F0000EE80403E3E5CFCA
:10008000EDFFFBD700EE01F0020EE80403E3E5CF3D
:10009000EDFFFBD7E5CFFAFFE5CFF4FFE5CFF3FFA8
:1000A000E5CFF5FFE5CFF7FFE5CFF6FFE5CFEAFFB8
:1000B000E5CFE9FFE5CFDAFF1100949C949E829C86
:1000C000829EF086F090F088F092F198F28E070E02
:1000D000D56EF28AF294FFD71200F090829C829E35
:1000E0001200F092829C828ED66AD76AD58E120058
:1000F000D59EF29400018A2B000E8B23860E8A195E
:1001000001E18B5105E1829C829E8A6B8B6B03D04F
:08011000D66AD76AD58E1200F1
:080118000E0EF66E000EF76EEC
:10012000000EF86E00010900F550856F0900F550CA
:10013000866F03E1856701D03DD00900F550806FDF
:100140000900F550816F0900F550826F0900090020
:10015000F550E96E0900F550EA6E09000900090042
:10016000F550836F0900F550846F09000900F6CF40
:1001700087F0F7CF88F0F8CF89F080C0F6FF81C014
:10018000F7FF82C0F8FF0001835302E1845307E0C8
:100190000900F550EE6E8307F8E28407F9D787C0AF
:1001A000F6FF88C0F7FF89C0F8FF00018507000E41
:0601B000865BBFD71200C0
:0A01B600000EF36E00EE00F0060EDE
:1001C00001D81200EA6002D0EE6AFCD7F350E96071
:0601D0001200EE6AFCD7EC
:0A01D60015EE00F025EE00F0F86AC7
:1001E000019C8CEC00F003EC00F05DEC00F0FBD720
:0201F0001200FB
:0201F20000000B
:020000040030CA
:0100010002FC
:010003001EDE
:010006008574
:00000001FF
