:020000040000FA
:06000000F9EF00F0120010
:020006000000F8
:0600080007EF00F01200FA
:02000E00DACF47
:10001000E4FFE2CFDAFFE652D59EF294020E83248B
:10002000836EE10ED66ED58EE552E5CFDAFF110074
:10003000D9CFE6FFE1CFD9FF060EE126150EDE6E21
:10004000DD6A010EF36E040EF3CFDBFF050EDB6AF3
:10005000936AE00EF26E400ED56EE10ED66ED58E2E
:10006000836AD9CFE9FFDACFEAFF020EEECFDBFFDA
:10007000030EEDCFDBFF020EDBCF14F0030EDBCF60
:1000800015F0153404E214500008000E15541AE25D
:10009000040EDBCF08F0050EDBCF09F0020EDBCF3C
:1000A0000DF0030EDBCF0EF0BCEC00F0040E06C02A
:1000B000DBFF050E07C0DBFF020EDB06030E01E2CD
:1000C000DB06D9D7CED7060EE15C02E2E16AE55243
:0A00D000E16EE552E7CFD9FF120000
:0600DA00060EF66E000E9A
:1000E000F76E000EF86E00010900F550856F0900EB
:1000F000F550866F03E1856701D03DD00900F550CA
:10010000806F0900F550816F0900F550826F09007A
:100110000900F550E96E0900F550EA6E0900090082
:100120000900F550836F0900F550846F090009003C
:10013000F6CF87F0F7CF88F0F8CF89F080C0F6FFD0
:1001400081C0F7FF82C0F8FF0001835302E18453AE
:1001500007E00900F550EE6E8307F8E28407F9D74F
:1001600087C0F6FF88C0F7FF89C0F8FF0001850748
:08017000000E865BBFD71200F0
:0801780009C013F008C012F0E9
:1001800008500D02F4CF07F0F3CF06F009500E022D
:10019000F4CF09F0F3CF08F00D02F3500726F45026
:1001A0000822E86A092212500E02F3500726F45082
:1001B0000822E86A09220EAEE2EF00F01250085E53
:1001C0001350095A13AE000C0D50085E0E50095A18
:0201D000000C21
:0E01D200000EF36E00EE00F0060E01D81200D3
:1001E000EA6002D0EE6AFCD7F350E9601200EE6AD2
:0201F000FCD73A
:0E01F20015EE00F025EE00F0F86A019C6DECB1
:0E02000000F007EC01F018EC00F0FBD7120044
:02020E001200DC
:020000040030CA
:0100010002FC
:010003001EDE
:010006008574
:00000001FF
