:020000040000FA
:060000005CEF01F01200AC
:020006001200E6
:0600080016EF00F01200EB
:02000E000000F0
:020010000000EE
:0600180063EF00F012008E
:02001E000100DF
:0C0020000E0000008A0000000400000038
:04002C00DACFE4FF44
:10003000E2CFDAFFE9CFE4FFEACFE4FFF6CFE4FF57
:10004000F7CFE4FFF5CFE4FFF3CFE4FFF4CFE4FF15
:10005000FACFE4FF00EE00F0020EE80403E3EECF77
:10006000E4FFFBD700EE02F0000EE80403E3EECF5E
:10007000E4FFFBD7E652F2B4A5D8F0B2AAD8E55215
:1000800000EE01F0000EE80403E3E5CFEDFFFBD73F
:1000900000EE01F0020EE80403E3E5CFEDFFFBD72D
:1000A000E5CFFAFFE5CFF4FFE5CFF3FFE5CFF5FFAE
:1000B000E5CFF7FFE5CFF6FFE5CFEAFFE5CFE9FFB4
:1000C000E5CFDAFF1100D8CFE4FFE0CFE4FFE46E24
:1000D000DACFE4FFE2CFDAFFE9CFE4FFEACFE4FFD3
:1000E000F6CFE4FFF7CFE4FFF5CFE4FFF3CFE4FF73
:1000F000F4CFE4FFFACFE4FF00EE00F0020EE804D4
:1001000003E3EECFE4FFFBD700EE02F0000EE804BD
:1001100003E3EECFE4FFFBD7E6529EB060D8F0B029
:1001200066D8E55200EE01F0000EE80403E3E5CFE7
:10013000EDFFFBD700EE01F0020EE80403E3E5CF8C
:10014000EDFFFBD7E5CFFAFFE5CFF4FFE5CFF3FFF7
:10015000E5CFF5FFE5CFF7FFE5CFF6FFE5CFEAFF07
:10016000E5CFE9FFE5CFDAFFE550E5CFE0FFE5CFEA
:10017000D8FF1000070EC16E939A939EF2949E9042
:10018000F28A9D80F090F086F092F088D08EF18413
:100190009F90F08EF09C480ED56EC80ED66ED58E10
:1001A000880ECD6EAA0ECF6ECE6ACD80F28EF28C06
:1001B000946A956A818A818E8CC083FF8AC082FF8F
:1001C000FBD71200D59EF294817AC80ED66ED58EDA
:1001D0001200F09200018A2B000E8B231200CD90AA
:1001E0009E90817EAA0ECF6ECE6ACD801200F090D6
:0A01F00000018C2B000E8D2312007D
:0601FA001E0EF66E000E61
:10020000F76E000EF86E00010900F550856F0900C9
:10021000F550866F03E1856701D03DD00900F550A8
:10022000806F0900F550816F0900F550826F090059
:100230000900F550E96E0900F550EA6E0900090061
:100240000900F550836F0900F550846F090009001B
:10025000F6CF87F0F7CF88F0F8CF89F080C0F6FFAF
:1002600081C0F7FF82C0F8FF0001835302E184538D
:1002700007E00900F550EE6E8307F8E28407F9D72E
:1002800087C0F6FF88C0F7FF89C0F8FF0001850727
:08029000000E865BBFD71200CF
:08029800000EF36E00EE00F011
:1002A000060E01D81200EA6002D0EE6AFCD7F350C5
:0802B000E9601200EE6AFCD7C0
:0802B80014EE00F024EE00F04A
:1002C000F86A019CFDEC00F003EC00F0BAEC00F0E1
:0402D000FBD7120046
:020000040030CA
:0100010002FC
:010003001EDE
:0100060005F4
:00000001FF
