:020000040000FA
:0600000089EF02F012007E
:020006001200E6
:060008000EEF00F01200F3
:02000E000100EF
:0C0010002E0500008000000067000000CA
:04001C00DACFE4FF54
:10002000E2CFDAFFE9CFE4FFEACFE4FFF6CFE4FF67
:10003000F7CFE4FFF5CFE4FFF3CFE4FFF4CFE4FF25
:10004000FACFE4FF00EE00F0140EE80403E3EECF75
:10005000E4FFFBD700EE14F0040EE80403E3EECF58
:10006000E4FFFBD7E6529EB872D89EBAA1D8E552FB
:1000700000EE17F0040EE80403E3E5CFEDFFFBD735
:1000800000EE13F0140EE80403E3E5CFEDFFFBD719
:10009000E5CFFAFFE5CFF4FFE5CFF3FFE5CFF5FFBE
:1000A000E5CFF7FFE5CFF6FFE5CFEAFFE5CFE9FFC4
:1000B000E5CFDAFF1100D9CFE6FFE1CFD9FF060E79
:1000C000E126936A956A948C948E200EAC6E900E05
:1000D000AB6EB8960F0EAF6E9D889D8AF28EF28C35
:1000E0000001E65129E0E66B300EE45D0001E96FA6
:1000F000EA6B800B01E0EA69800EEA151DE1EA3542
:1001000004E2E9510908000EEA5516E3E9C0E6FFEA
:10011000EAC0E6FFEDD8E552E552040EF3CFDBFF6F
:10012000050EF4CFDBFF040EDBCFE6FF050EDBCFC1
:10013000E6FF44D8E552E552D3D7060EE15C02E271
:10014000E16AE552E16EE552E7CFD9FF1200000106
:10015000E351E119E8AE02D0E13504D0E051E25DAF
:10016000E151E3590CE2800EE225E96E000EE32135
:10017000EA6EEF50AD6EE22B000EE32318D0E5518E
:1001800015E00001E707000EE85BEB0EE725E96EDE
:10019000000EE821EA6EEF50AD6EE71D01E1E81DAB
:1001A00004E10001E56BE26BE36B01D09D98120066
:1001B000AECFE4F00001010EE66F1200D9CFE6FFEA
:1001C000E1CFD9FF1A0EE126DE6ADD6AD950FD0FB4
:1001D000E96EFF0EDA20EA6EEE50ED106BE0FD0ED8
:1001E000DBCF16F0FE0EDBCF17F00A0E0D6E0E6A97
:1001F00016C008F017C009F0C1EC01F004C016F0F9
:1002000005C017F0D950060F146EDACF15F0020EA4
:10021000086E096ADECF0DF0DDCF0EF0E7EC01F0DD
:1002200014500624E96E15500720EA6E16C0EEFF42
:1002300017C0EDFFD950060F166EDACF17F0020E79
:10024000086E096ADECF0DF0DDCF0EF0E7EC01F0AD
:1002500016500624E96E17500720EA6EEECF14F010
:10026000EFCF15F0300E1426000E1522DECFE9FF79
:10027000DDCFEAFFEB0EE926000EEA2214C0EFFF05
:100280000A0E146E156AFD0EDBCF08F0FE0EDBCFF2
:1002900009F014C00DF015C00EF0C1EC01F0FD0E18
:1002A00008C0DBFFFE0E09C0DBFFDF2A010E01E301
:1002B000DB2A8CD70001010EE56FDECFE7F0DDCF42
:1002C000E8F00001E75F000EE85BEB0EE725E96E62
:1002D000000EE821EA6EEF50AD6E9D881A0EE15CCB
:1002E00002E2E16AE552E16EE552E7CFD9FF120082
:1002F000D9CFE6FFE1CFD9FF040EE126010EF36E60
:10030000020EF3CFDBFF030EDB6AFD0EDBCFDEFF59
:10031000DBCFDDFFDECF14F0DDCF15F0153404E2C6
:1003200014500008000E155417E2020EDBCF08F03F
:10033000030EDBCF09F0DECF0DF0DDCF0EF0E7ECE2
:1003400001F0020E06C0DBFF030E07C0DBFFDF0675
:10035000010E01E2DB06DED7020EDBCF14F0030E46
:10036000DBCF15F014C0F3FF15C0F4FF040EE15C01
:1003700003E200D0E16AE552E16EE552E7CFD9FF32
:02038000120069
:0E038200006A0EAECAEF01F00D6C0E1EE86AA6
:100390000E22001E09AED2EF01F0086C091EE86AB9
:1003A0000922001E63EC02F009BEE2EF01F000AE8C
:1003B000000C086C091EE86A0922046C051EE86A34
:1003C0000522000C00BED9EF01F00188FF0C09C026
:1003D00013F008C012F008500D02F4CF07F0F3CF6D
:1003E00006F009500E02F4CF09F0F3CF08F00D0229
:1003F000F3500726F4500822E86A092212500E0230
:10040000F3500726F4500822E86A09220EAE0DEFD9
:1004100002F01250085E1350095A13AE000C0D5032
:08042000085E0E50095A000CA1
:080428000E0EF66E000EF76ED9
:10043000000EF86E00010900F550FA6F0900F55042
:10044000FB6F03E1FA6701D03DD00900F550F56F6D
:100450000900F550F66F0900F550F76F0900090023
:10046000F550E96E0900F550EA6E0900090009002F
:10047000F550F86F0900F550F96F09000900F6CF43
:10048000FCF0F7CFFDF0F8CFFEF0F5C0F6FFF6C0B8
:10049000F7FFF7C0F8FF0001F85302E1F95307E056
:1004A0000900F550EE6EF807F8E2F907F9D7FCC03D
:1004B000F6FFFDC0F7FFFEC0F8FF0001FA07000ECF
:0604C000FB5BBFD7120038
:0A04C600056A046A100EE76ED89074
:1004D00008360936043605360D50045C0E500558B2
:1004E00005E30D50045E0E50055A082AE72EF0D79A
:0204F0001200F8
:0E04F200000EF36E00EE00F0060E01D81200B0
:10050000EA6002D0EE6AFCD7F350E9601200EE6AAE
:02051000FCD716
:0E05120015EE00F025EE00F0F86A019C14ECE6
:0E05200002F003EC00F05BEC00F0FBD71200E1
:02052E000D0DB1
:10053000546869732069732041204879706572544A
:1005400065726D696E616C2053696D756C6174695B
:100550006F6E0D0D50726573732061206275747437
:100560006F6E206265747765656E203020616E6401
:10057000203920746F2063616C63756C6174652031
:10058000666163746F7269616C0D0A0D0A005F0029
:05059000000014000052
:020000040030CA
:0100010002FC
:010003001EDE
:010006008178
:00000001FF
