:020000040000FA
:060000003AEF01F01200CE
:020006001200E6
:060008000EEF00F01200F3
:02000E000100EF
:0C001000900200009400000004000000BA
:04001C00DACFE4FF54
:10002000E2CFDAFFE9CFE4FFEACFE4FFF6CFE4FF67
:10003000F7CFE4FFF5CFE4FFF3CFE4FFF4CFE4FF25
:10004000FACFE4FF00EE15F0020EE80403E3EECF72
:10005000E4FFFBD700EE00F0150EE80403E3EECF5B
:10006000E4FFFBD7E6529EB440D89EB038D8E552A4
:1000700000EE14F0150EE80403E3E5CFEDFFFBD727
:1000800000EE16F0020EE80403E3E5CFEDFFFBD728
:10009000E5CFFAFFE5CFF4FFE5CFF3FFE5CFF5FFBE
:1000A000E5CFF7FFE5CFF6FFE5CFEAFFE5CFE9FFC4
:1000B000E5CFDAFF1100956ABD6A9484800ECD6E9B
:1000C000200EB16ECE6ACF6A050EBD6E9E909D80E9
:1000D0009D849E94F28EF28CCD80FFD712009E906C
:1000E0000001942B000E952312009E94000196515E
:1000F00058E197054DE1BECF80F0BFCF81F0096890
:100100000A680B6A82C00CF083C00DF00E6A0C50B6
:10011000095C066E0D500A58076E0E500B58086E9B
:1001200080C00FF081C010F0116A06500F24036EDA
:1001300007501020046E08501120056E94C012F074
:1001400095C013F01206000E135A146A100ED890C0
:10015000123613361436E806FAE103501224006E04
:1001600004501320016E05501420026E00C084F06C
:1001700001C085F000018251885D866F83518959E5
:10018000876F0001976B80C082F081C083F004D03C
:10019000BECF82F0BFCF83F0010E966F040EBD6E0E
:1001A00009D0BECF88F0BFCF89F0966B010E976F54
:0601B000050EBD6E1200F9
:0A01B6000E0EF66E000EF76E000E3E
:1001C000F86E00010900F5508F6F0900F550906F2F
:1001D00003E18F6701D03DD00900F5508A6F090017
:1001E000F5508B6F0900F5508C6F09000900F55030
:1001F000E96E0900F550EA6E090009000900F550A2
:100200008D6F0900F5508E6F09000900F6CF91F04F
:10021000F7CF92F0F8CF93F08AC0F6FF8BC0F7FFCC
:100220008CC0F8FF00018D5302E18E5307E00900F6
:10023000F550EE6E8D07F8E28E07F9D791C0F6FF04
:1002400092C0F7FF93C0F8FF00018F07000E905B8C
:04025000BFD7120002
:0C025400000EF36E00EE00F0060E01D864
:100260001200EA6002D0EE6AFCD7F350E960120097
:04027000EE6AFCD75F
:0C02740015EE00F025EE00F0F86A169C74
:10028000DBEC00F003EC00F05BEC00F0FBD71200BD
:04029000000000006A
:020000040030CA
:0100010002FC
:010003001EDE
:010006008574
:00000001FF
