:020000040000FA
:0600000095EF02F0120072
:020006001200E6
:0600080069EF01F0120097
:02000E000100EF
:0C00100046050000920000000100000006
:04001C000F9E08D05B
:100020000F9E07AE05D0066C071EE86A07220F8EEA
:1000300007C001F006C000F0136A126A8E0E026E4D
:10004000036AFFEF00F00F6A3BEC01F053EC01F0A4
:100050000FB6E3EF00F00FA205D00FBAE3EF00F008
:10006000EAEF00F00FBAF6EF00F00FA005D00FB8DE
:10007000E3EF00F0F6EF00F00FB8EAEF00F0036AEC
:100080007F0E0824026EE86A03220D50025EE86AC1
:10009000035A1A0E106E086A126A136A006A016A1D
:1000A0000A50055E0B50065A0C50075A000E085AAB
:1000B00009E70A5005260B5006220C500722000EB5
:1000C000082201D0128AD89005360636073608363F
:1000D000D8901236133600360136102EE1D707506D
:1000E00006100510D8A4128AFFEF00F00F6A3BEC4F
:1000F00001F053EC01F00FB6E3EF00F00FA205D0D2
:100100000FB8E3EF00F0EAEF00F00FAA05D00FB050
:10011000E3EF00F0EAEF00F00FB002D00FA802D03A
:10012000F6EF00F0036A0D500824026EE86A03221D
:100130007E0E025EE86A035A126A136A006A016A56
:100140000C500702F4CF01F0F3CF00F00B50070280
:10015000F3501326F4500022000E01220C50060228
:10016000F3501326F4500022000E01220A50070219
:10017000F3501226F4501322000E002201220B50DD
:100180000602F3501226F4501322000E0022012220
:100190000C500502F3501226F4501322000E0022D8
:1001A00001220A500602F4501226000E13220022E9
:1001B00001220B500502F4501226000E13220022D9
:1001C0000122FFEF00F07F0E086EFF0E076E066E35
:1001D000056E12007F0E0FBEFF0E086E02D07F0E5E
:1001E000086E800E076E066A056AF3D70FAE04D05C
:1001F000800E086E076AF7D7086A076AF4D70150BD
:10020000001013101210F8E003BEF0D701BE0CD09E
:1002100002500310EBE0D890123613360036013648
:100220000206D8A00306F2D70350D4E10228D2E098
:1002300012AE11D07F0E121402E113A00CD0132ABB
:10024000E86A0022012207E3D8800132003213322B
:10025000022A0228BFE00250C9E013C005F000C026
:1002600006F00134076E0230086E0732089E0FBE9A
:10027000088EE9EF00F00736083602E30F840F7EA0
:1002800006E10F80086A076A066A056A12000828F4
:1002900003E0D88007321200D890073202E10F82C3
:1002A00012000F8612000C360D3602E30F8C0F7E03
:1002B00006E10F880D6A0C6A0B6A0A6A12000D28A3
:1002C00003E0D8800C321200D8900C32EAE10F8A99
:0202D00012001A
:0E02D200DACFE4FFE2CFDAFFE9CFE4FFEACFB4
:1002E000E4FFF6CFE4FFF7CFE4FFF5CFE4FFF3CF71
:1002F000E4FFF4CFE4FFFACFE4FF00EE00F0140EC9
:10030000E80403E3EECFE4FFFBD700EE14F00A0E9F
:10031000E80403E3EECFE4FFFBD7E6529EB481D8B6
:10032000E55200EE1DF00A0EE80403E3E5CFEDFF11
:10033000FBD700EE13F0140EE80403E3E5CFEDFF66
:10034000FBD7E5CFFAFFE5CFF4FFE5CFF3FFE5CF2D
:10035000F5FFE5CFF7FFE5CFF6FFE5CFEAFFE5CF05
:10036000E9FFE5CFDAFF1100956ABD6A9484800E3B
:10037000CD6E200EB16ECE6ACF6A060EBD6E9E9017
:100380009D849E94F28EF28CCD800001925147E0C4
:1003900000018C518A5D1C6E8B518D551D6E1CC0E9
:1003A00006F01DC007F00EEC00F005C018F006C006
:1003B00019F007C01AF008C01BF0950E0A6EBF0EA8
:1003C0000B6ED60E0C6E340E0D6E18C005F019C0F3
:1003D00006F01AC007F01BC008F076EC00F005C06C
:1003E00014F006C015F007C016F008C017F00A6A2E
:1003F0000B6A800E0C6E400E0D6E14C005F015C019
:1004000006F016C007F017C008F023EC00F005C096
:100410008EF006C08FF007C090F008C091F0B5D7FD
:1004200012009E940001925111E1BF5000018C6FA7
:100430008D6B8CC08DF08C6BBE508C258C6F000E3C
:100440008D218D6F0001010E926F0FD0BF50000102
:100450008A6F8B6B8AC08BF08A6BBE508A258A6F3D
:0C046000000E8B218B6F0001926B1200CC
:04046C000E0EF66E0C
:10047000000EF76E000EF86E00010900F550856F52
:100480000900F550866F03E1856701D03DD0090072
:10049000F550806F0900F550816F0900F550826FAB
:1004A00009000900F550E96E0900F550EA6E0900EF
:1004B00009000900F550836F0900F550846F0900A9
:1004C0000900F6CF87F0F7CF88F0F8CF89F080C029
:1004D000F6FF81C0F7FF82C0F8FF0001835302E1FD
:1004E000845307E00900F550EE6E8307F8E28407B5
:1004F000F9D787C0F6FF88C0F7FF89C0F8FF000171
:0A0500008507000E865BBFD71200CE
:06050A00000EF36E00EE8E
:1005100000F0060E01D81200EA6002D0EE6AFCD7A5
:0A052000F350E9601200EE6AFCD708
:06052A0015EE00F025EEC5
:1005300000F0F86A0F9C36EC02F003EC00F0B4EC2B
:0605400001F0FBD71200E0
:0105460000B4
:020000040030CA
:0100010002FC
:010003001EDE
:010006008574
:00000001FF
